:100000000C9434000C9449000C9449000C94490061
:100010000C9449000C9449000C9449000C9449003C
:100020000C9449000C9449000C9449000C9449002C
:100030000C9449000C9449000C9449000C9449001C
:100040000C9449000C9449000C9449000C9449000C
:100050000C9449000C9449000C9449000C944900FC
:100060000C9449000C94490011241FBECFEFD8E036
:10007000DEBFCDBF11E0A0E0B1E0E8EDF2E002C0EC
:1000800005900D92A235B107D9F70E9415010C9485
:100090006A010C94000087B1807F87B9299A28985B
:1000A0002A9A85E08A95F1F7000086B12A9895E0B2
:1000B0009A95F1F700002A9A95E09A95F1F70000D9
:1000C0002A9895E09A95F1F7000083FDE9CF87B172
:1000D0008F6087B929980895CF93C82F0E944B004D
:1000E0002898299885E08A95F1F700002A9A8C2FA4
:1000F00082958F7088B985E08A95F1F700002A987B
:1001000085E08A95F1F700002A9AC8B985E08A95BA
:10011000F1F700002A98CF910895289829982FEF99
:1001200086E791E0215080409040E1F700C0000058
:1001300083E088B92A9AEAE0EA95F1F700C02A98A4
:10014000EFE3FCE93197F1F700C0000088B92A9A83
:10015000FAE0FA95F1F700C02A98E7E5F2E0319766
:10016000F1F700C0000088B92A9AFAE0FA95F1F791
:1001700000C02A982AE02A95F1F700C082E088B9E9
:100180002A9A8AE08A95F1F700C02A9880E20E94B4
:100190006C008CE00E946C0081E00E946C0086E0A4
:1001A0000C946C00CF93C82F0E944B00289A29987A
:1001B00085E08A95F1F700002A9A8C2F82958F703E
:1001C00088B985E08A95F1F700002A9885E08A953C
:1001D000F1F700002A9AC8B985E08A95F1F7000086
:1001E0002A98CF910895EF92FF920F931F93CF9388
:1001F000DF938C017C01C0E0D0E0F8010190002089
:10020000E9F73197E01BF10BCE17DF0738F0DF91EC
:10021000CF911F910F91FF90EF900895F701819179
:100220007F010E94D2002196E8CFCDB7DEB7C0553E
:10023000D1090FB6F894DEBF0FBECDBF87B18F6076
:1002400087B984B1876084B98FE78AB986E4E0E032
:10025000F1E07E012FEFE21AF20AD70101900D9230
:100260008A95E1F78E01095B1F4F8AE0E6E4F1E031
:10027000D80101900D928A95E1F70E948D008E2C95
:10028000BF2CA02E912E680180E80E946C00082DE2
:100290001B2DEA2CF92CC8010E94F300F701819173
:1002A0007F018BB9FFEF23ED80E3F15020408040C8
:1002B000E1F700C0000081E00E946C00EFE7FEE380
:1002C0003197F1F700C00000095F1F4F0C151D05A5
:0802D00011F7DACFF894FFCF1B
:1002D8005A45524F0000004F4E4500000000545749
:1002E8004F0000000054485245450000464F555203
:1002F80000000046495645000000534958000000D8
:1003080000534556454E0000454947485400004EA5
:10031800494E450000003F065B4F666D7D077F6FC5
:020328000000D3
:00000001FF
